{
  "contractName": "Victim",
  "abi": [
    {
      "constant": false,
      "inputs": [],
      "name": "withdraw",
      "outputs": [],
      "payable": false,
      "stateMutability": "nonpayable",
      "type": "function"
    },
    {
      "constant": false,
      "inputs": [],
      "name": "deposit",
      "outputs": [],
      "payable": true,
      "stateMutability": "payable",
      "type": "function"
    }
  ],
  "bytecode": "0x6060604052671bc16d674ec800006000556729a2241af62c0000600155341561002757600080fd5b60e4806100356000396000f3006060604052600436106049576000357c0100000000000000000000000000000000000000000000000000000000900463ffffffff1680633ccfd60b14604e578063d0e30db0146060575b600080fd5b3415605857600080fd5b605e6068565b005b606660af565b005b3373ffffffffffffffffffffffffffffffffffffffff1660015460405160006040518083038185875af192505050151560a057600080fd5b60015460005403600081905550565b346000819055505600a165627a7a72305820e73e9ad2909f5356afec99158e8cc18104a61749e6b4125ab788e8492c7f24be0029",
  "source": "pragma solidity ^0.4.15;\n\ncontract Victim {\n  uint withdrawableBalance = 2 ether;\n  uint a = 3 ether;\n  function withdraw() {\n    if (!msg.sender.call.value(a)()) {\n      throw;\n    }\n\t\t\n    withdrawableBalance = withdrawableBalance - a;\n  }\n\n  function deposit() payable {\n    withdrawableBalance = msg.value;\n  }\n}\n",
  "sourcePath": "/home/tuanvu/reentrancy_attack/contracts/Victim.sol",
  "compiler": {
    "name": "solc",
    "version": "0.4.21+commit.dfe3193c.Emscripten.clang"
  },
  "schemaVersion": "2.0.0",
  "updatedAt": "2018-04-10T11:46:14.505Z"
}